{
  "contractName": "MultiSignWallet",
  "abi": [
    {
      "inputs": [
        {
          "internalType": "address[]",
          "name": "_approverList",
          "type": "address[]"
        },
        {
          "internalType": "uint256",
          "name": "_minNoApproval",
          "type": "uint256"
        }
      ],
      "stateMutability": "nonpayable",
      "type": "constructor"
    },
    {
      "anonymous": false,
      "inputs": [
        {
          "indexed": false,
          "internalType": "uint256",
          "name": "transactionId",
          "type": "uint256"
        },
        {
          "indexed": false,
          "internalType": "string",
          "name": "message",
          "type": "string"
        }
      ],
      "name": "CreatedTransaction",
      "type": "event"
    },
    {
      "anonymous": false,
      "inputs": [
        {
          "indexed": false,
          "internalType": "address",
          "name": "sender",
          "type": "address"
        },
        {
          "indexed": false,
          "internalType": "uint256",
          "name": "amount",
          "type": "uint256"
        },
        {
          "indexed": false,
          "internalType": "string",
          "name": "message",
          "type": "string"
        }
      ],
      "name": "SmartContractReceivedEth",
      "type": "event"
    },
    {
      "anonymous": false,
      "inputs": [
        {
          "components": [
            {
              "internalType": "uint256",
              "name": "id",
              "type": "uint256"
            },
            {
              "internalType": "uint256",
              "name": "amount",
              "type": "uint256"
            },
            {
              "internalType": "address payable",
              "name": "to",
              "type": "address"
            },
            {
              "internalType": "uint256",
              "name": "noApproval",
              "type": "uint256"
            },
            {
              "internalType": "bool",
              "name": "sent",
              "type": "bool"
            }
          ],
          "indexed": false,
          "internalType": "struct MultiSignWallet.Transaction",
          "name": "transaction",
          "type": "tuple"
        },
        {
          "indexed": false,
          "internalType": "string",
          "name": "message",
          "type": "string"
        }
      ],
      "name": "TransactionSent",
      "type": "event"
    },
    {
      "stateMutability": "payable",
      "type": "receive"
    },
    {
      "inputs": [],
      "name": "getApproverList",
      "outputs": [
        {
          "internalType": "address[]",
          "name": "",
          "type": "address[]"
        }
      ],
      "stateMutability": "view",
      "type": "function"
    },
    {
      "inputs": [],
      "name": "getTransactionList",
      "outputs": [
        {
          "components": [
            {
              "internalType": "uint256",
              "name": "id",
              "type": "uint256"
            },
            {
              "internalType": "uint256",
              "name": "amount",
              "type": "uint256"
            },
            {
              "internalType": "address payable",
              "name": "to",
              "type": "address"
            },
            {
              "internalType": "uint256",
              "name": "noApproval",
              "type": "uint256"
            },
            {
              "internalType": "bool",
              "name": "sent",
              "type": "bool"
            }
          ],
          "internalType": "struct MultiSignWallet.Transaction[]",
          "name": "",
          "type": "tuple[]"
        }
      ],
      "stateMutability": "view",
      "type": "function"
    },
    {
      "inputs": [
        {
          "internalType": "uint256",
          "name": "_amount",
          "type": "uint256"
        },
        {
          "internalType": "address payable",
          "name": "_to",
          "type": "address"
        }
      ],
      "name": "createTransaction",
      "outputs": [],
      "stateMutability": "nonpayable",
      "type": "function"
    },
    {
      "inputs": [
        {
          "internalType": "uint256",
          "name": "_transactionId",
          "type": "uint256"
        }
      ],
      "name": "approveTransaction",
      "outputs": [],
      "stateMutability": "nonpayable",
      "type": "function"
    },
    {
      "inputs": [],
      "name": "getBalance",
      "outputs": [
        {
          "internalType": "uint256",
          "name": "",
          "type": "uint256"
        }
      ],
      "stateMutability": "view",
      "type": "function"
    }
  ],
  "bytecode": "0x60806040523480156200001157600080fd5b5060405162001581380380620015818339818101604052810190620000379190620001e9565b81600190805190602001906200004f9291906200005f565b50806000819055505050620003a3565b828054828255906000526020600020908101928215620000db579160200282015b82811115620000da5782518260006101000a81548173ffffffffffffffffffffffffffffffffffffffff021916908373ffffffffffffffffffffffffffffffffffffffff1602179055509160200191906001019062000080565b5b509050620000ea9190620000ee565b5090565b5b8082111562000109576000816000905550600101620000ef565b5090565b6000620001246200011e8462000278565b6200024f565b905080838252602082019050828560208602820111156200014a57620001496200034f565b5b60005b858110156200017e578162000163888262000188565b8452602084019350602083019250506001810190506200014d565b5050509392505050565b60008151905062000199816200036f565b92915050565b600082601f830112620001b757620001b66200034a565b5b8151620001c98482602086016200010d565b91505092915050565b600081519050620001e38162000389565b92915050565b6000806040838503121562000203576200020262000359565b5b600083015167ffffffffffffffff81111562000224576200022362000354565b5b62000232858286016200019f565b92505060206200024585828601620001d2565b9150509250929050565b60006200025b6200026e565b9050620002698282620002e5565b919050565b6000604051905090565b600067ffffffffffffffff8211156200029657620002956200031b565b5b602082029050602081019050919050565b6000620002b482620002bb565b9050919050565b600073ffffffffffffffffffffffffffffffffffffffff82169050919050565b6000819050919050565b620002f0826200035e565b810181811067ffffffffffffffff821117156200031257620003116200031b565b5b80604052505050565b7f4e487b7100000000000000000000000000000000000000000000000000000000600052604160045260246000fd5b600080fd5b600080fd5b600080fd5b600080fd5b6000601f19601f8301169050919050565b6200037a81620002a7565b81146200038657600080fd5b50565b6200039481620002db565b8114620003a057600080fd5b50565b6111ce80620003b36000396000f3fe60806040526004361061004e5760003560e01c806312065fe014610093578063242232d1146100be5780632d85ea7e146100e75780637cf4c54314610112578063989df4931461013b5761008e565b3661008e577f2a0c4021ba37f27024d7bff36337a04999705336fa33ed37c890a4cca6b53e8d3334604051610084929190610cdc565b60405180910390a1005b600080fd5b34801561009f57600080fd5b506100a8610166565b6040516100b59190610dea565b60405180910390f35b3480156100ca57600080fd5b506100e560048036038101906100e0919061094e565b61016e565b005b3480156100f357600080fd5b506100fc61058c565b6040516101099190610d3a565b60405180910390f35b34801561011e57600080fd5b506101396004803603810190610134919061097b565b61067a565b005b34801561014757600080fd5b50610150610896565b60405161015d9190610d18565b60405180910390f35b600047905090565b6000805b600180549050811015610209573373ffffffffffffffffffffffffffffffffffffffff16600182815481106101aa576101a961100d565b5b9060005260206000200160009054906101000a900473ffffffffffffffffffffffffffffffffffffffff1673ffffffffffffffffffffffffffffffffffffffff1614156101f657600191505b808061020190610f95565b915050610172565b506001151581151514610251576040517f08c379a000000000000000000000000000000000000000000000000000000000815260040161024890610d5c565b60405180910390fd5b60001515600383815481106102695761026861100d565b5b906000526020600020906005020160040160009054906101000a900460ff161515146102ca576040517f08c379a00000000000000000000000000000000000000000000000000000000081526004016102c190610d7c565b60405180910390fd5b60011515600260003373ffffffffffffffffffffffffffffffffffffffff1673ffffffffffffffffffffffffffffffffffffffff168152602001908152602001600020600084815260200190815260200160002060009054906101000a900460ff1615151461036e576040517f08c379a000000000000000000000000000000000000000000000000000000000815260040161036590610d9c565b60405180910390fd5b6001600260003373ffffffffffffffffffffffffffffffffffffffff1673ffffffffffffffffffffffffffffffffffffffff168152602001908152602001600020600084815260200190815260200160002060006101000a81548160ff021916908315150217905550600382815481106103eb576103ea61100d565b5b9060005260206000209060050201600301600081548092919061040d90610f95565b9190505550600054600383815481106104295761042861100d565b5b9060005260206000209060050201600301541061058857600382815481106104545761045361100d565b5b906000526020600020906005020160020160009054906101000a900473ffffffffffffffffffffffffffffffffffffffff1673ffffffffffffffffffffffffffffffffffffffff166108fc600384815481106104b3576104b261100d565b5b9060005260206000209060050201600101549081150290604051600060405180830381858888f193505050501580156104f0573d6000803e3d6000fd5b506001600383815481106105075761050661100d565b5b906000526020600020906005020160040160006101000a81548160ff0219169083151502179055507fbf1d8c5f511325b3b2be512be0ce203c9380ed7cfc3d232b6489daa238f3e054600383815481106105645761056361100d565b5b906000526020600020906005020160405161057f9190610dbc565b60405180910390a15b5050565b60606003805480602002602001604051908101604052809291908181526020016000905b8282101561067157838290600052602060002090600502016040518060a001604052908160008201548152602001600182015481526020016002820160009054906101000a900473ffffffffffffffffffffffffffffffffffffffff1673ffffffffffffffffffffffffffffffffffffffff1673ffffffffffffffffffffffffffffffffffffffff168152602001600382015481526020016004820160009054906101000a900460ff161515151581525050815260200190600101906105b0565b50505050905090565b6000805b600180549050811015610715573373ffffffffffffffffffffffffffffffffffffffff16600182815481106106b6576106b561100d565b5b9060005260206000200160009054906101000a900473ffffffffffffffffffffffffffffffffffffffff1673ffffffffffffffffffffffffffffffffffffffff16141561070257600191505b808061070d90610f95565b91505061067e565b50600115158115151461075d576040517f08c379a000000000000000000000000000000000000000000000000000000000815260040161075490610d5c565b60405180910390fd5b60036040518060a0016040528060038054905081526020018581526020018473ffffffffffffffffffffffffffffffffffffffff16815260200160008152602001600015158152509080600181540180825580915050600190039060005260206000209060050201600090919091909150600082015181600001556020820151816001015560408201518160020160006101000a81548173ffffffffffffffffffffffffffffffffffffffff021916908373ffffffffffffffffffffffffffffffffffffffff1602179055506060820151816003015560808201518160040160006101000a81548160ff02191690831515021790555050507faaca54ad9a2d191b0854d7a9dfe48872b9cd2e2bdf4c99b611c71e88da2d228d6003805490506040516108899190610e05565b60405180910390a1505050565b6060600180548060200260200160405190810160405280929190818152602001828054801561091a57602002820191906000526020600020905b8160009054906101000a900473ffffffffffffffffffffffffffffffffffffffff1673ffffffffffffffffffffffffffffffffffffffff16815260200190600101908083116108d0575b5050505050905090565b6000813590506109338161116a565b92915050565b60008135905061094881611181565b92915050565b6000602082840312156109645761096361103c565b5b600061097284828501610939565b91505092915050565b600080604083850312156109925761099161103c565b5b60006109a085828601610939565b92505060206109b185828601610924565b9150509250929050565b60006109c783836109fa565b60208301905092915050565b60006109df8383610bb5565b60a08301905092915050565b6109f481610eff565b82525050565b610a0381610eed565b82525050565b610a1281610eed565b82525050565b6000610a2382610e53565b610a2d8185610e83565b9350610a3883610e33565b8060005b83811015610a69578151610a5088826109bb565b9750610a5b83610e69565b925050600181019050610a3c565b5085935050505092915050565b6000610a8182610e5e565b610a8b8185610e94565b9350610a9683610e43565b8060005b83811015610ac7578151610aae88826109d3565b9750610ab983610e76565b925050600181019050610a9a565b5085935050505092915050565b610add81610f11565b82525050565b6000610af0601c83610ea5565b9150610afb8261104e565b602082019050919050565b6000610b13602083610ea5565b9150610b1e82611077565b602082019050919050565b6000610b36601983610ea5565b9150610b41826110a0565b602082019050919050565b6000610b59602283610ea5565b9150610b64826110c9565b604082019050919050565b6000610b7c601d83610ea5565b9150610b8782611118565b602082019050919050565b6000610b9f601483610ea5565b9150610baa82611141565b602082019050919050565b60a082016000820151610bcb6000850182610cbe565b506020820151610bde6020850182610cbe565b506040820151610bf160408501826109eb565b506060820151610c046060850182610cbe565b506080820151610c176080850182610ad4565b50505050565b60a082016000808301549050610c3281610f7b565b610c3f6000860182610cbe565b5060018301549050610c5081610f7b565b610c5d6020860182610cbe565b5060028301549050610c6e81610f47565b610c7b60408601826109eb565b5060038301549050610c8c81610f7b565b610c996060860182610cbe565b5060048301549050610caa81610f61565b610cb76080860182610ad4565b5050505050565b610cc781610f3d565b82525050565b610cd681610f3d565b82525050565b6000606082019050610cf16000830185610a09565b610cfe6020830184610ccd565b8181036040830152610d0f81610b06565b90509392505050565b60006020820190508181036000830152610d328184610a18565b905092915050565b60006020820190508181036000830152610d548184610a76565b905092915050565b60006020820190508181036000830152610d7581610ae3565b9050919050565b60006020820190508181036000830152610d9581610b29565b9050919050565b60006020820190508181036000830152610db581610b6f565b9050919050565b600060c082019050610dd16000830184610c1d565b81810360a0830152610de281610b92565b905092915050565b6000602082019050610dff6000830184610ccd565b92915050565b6000604082019050610e1a6000830184610ccd565b8181036020830152610e2b81610b4c565b905092915050565b6000819050602082019050919050565b6000819050602082019050919050565b600081519050919050565b600081519050919050565b6000602082019050919050565b6000602082019050919050565b600082825260208201905092915050565b600082825260208201905092915050565b600082825260208201905092915050565b600073ffffffffffffffffffffffffffffffffffffffff82169050919050565b600060ff82169050919050565b6000819050919050565b6000610ef882610f1d565b9050919050565b6000610f0a82610f1d565b9050919050565b60008115159050919050565b600073ffffffffffffffffffffffffffffffffffffffff82169050919050565b6000819050919050565b6000610f5a610f5583611041565b610eb6565b9050919050565b6000610f74610f6f83611041565b610ed6565b9050919050565b6000610f8e610f8983611041565b610ee3565b9050919050565b6000610fa082610f3d565b91507fffffffffffffffffffffffffffffffffffffffffffffffffffffffffffffffff821415610fd357610fd2610fde565b5b600182019050919050565b7f4e487b7100000000000000000000000000000000000000000000000000000000600052601160045260246000fd5b7f4e487b7100000000000000000000000000000000000000000000000000000000600052603260045260246000fd5b600080fd5b60008160001c9050919050565b7f4f6e6c7920617070726f7665206164647265737320616c6c6f77656400000000600082015250565b7f536d61727420636f6e747261637420726563656976656420455448455245554d600082015250565b7f5472616e73616374696f6e20686164206265656e2073656e7400000000000000600082015250565b7f5472616e73616374696f6e2077617320616464656420746f207468652071756560008201527f7565000000000000000000000000000000000000000000000000000000000000602082015250565b7f43616e6e6f7420617070726f7665207472616e73666572207477696365000000600082015250565b7f5472616e73616374696f6e207761732073656e74000000000000000000000000600082015250565b61117381610eff565b811461117e57600080fd5b50565b61118a81610f3d565b811461119557600080fd5b5056fea26469706673582212207cf1cbd5f58d39df070dd3ab8da607f492d0851610ebd335a27b82b2b9f48d5664736f6c63430008070033",
  "immutableReferences": {},
  "source": "// SPDX-License-Identifier: GPL-3.0\r\npragma solidity 0.8.7;\r\n\r\ncontract MultiSignWallet {\r\n \r\n    uint minNoApproval;\r\n \r\n    address[] approverList;\r\n    \r\n    mapping(address=>mapping(uint=>bool)) approverTransactionList;\r\n\r\n\r\n    struct Transaction{\r\n        uint id;\r\n        uint amount;\r\n        address payable to;\r\n        uint noApproval;\r\n        bool sent;\r\n    }\r\n    \r\n    Transaction[] transactionList;\r\n    \r\n    \r\n    event CreatedTransaction(uint transactionId, string message);\r\n    event TransactionSent(Transaction transaction, string message);\r\n    \r\n    constructor(address[] memory _approverList, uint _minNoApproval){\r\n        approverList = _approverList;\r\n        minNoApproval = _minNoApproval;\r\n    }\r\n    \r\n\r\n    function getApproverList() public view returns(address[] memory){\r\n        return approverList;\r\n    }\r\n    \r\n    function getTransactionList() public view returns(Transaction[] memory){\r\n        return transactionList;\r\n    } \r\n    \r\n    function createTransaction(uint _amount, address payable _to) public onlyApproval{\r\n        transactionList.push(\r\n          Transaction(transactionList.length, _amount, _to, 0, false) \r\n        );\r\n        \r\n        //here need to emit a successfully create transaction\r\n        emit CreatedTransaction(transactionList.length, 'Transaction was added to the queue');\r\n   \r\n    }\r\n    \r\n    function approveTransaction(uint _transactionId) public onlyApproval{\r\n        require(transactionList[_transactionId].sent == false, \"Transaction had been sent\");\r\n        require(approverTransactionList[msg.sender][_transactionId] == true, \"Cannot approve transfer twice\");\r\n    \r\n        approverTransactionList[msg.sender][_transactionId] = true;\r\n        transactionList[_transactionId].noApproval++;\r\n        \r\n        if(transactionList[_transactionId].noApproval >= minNoApproval){\r\n            transactionList[_transactionId].to.transfer(transactionList[_transactionId].amount);\r\n            transactionList[_transactionId].sent = true;\r\n            \r\n            //emit an transfer succesfully event\r\n            emit TransactionSent(transactionList[_transactionId], 'Transaction was sent');\r\n        }\r\n    }\r\n    \r\n    modifier onlyApproval(){\r\n        \r\n        bool allowed = false;\r\n        for(uint i=0; i<approverList.length; i++){\r\n            if(approverList[i] == msg.sender){\r\n              allowed = true;\r\n            }\r\n        }\r\n      \r\n         require(allowed==true, \"Only approve address allowed\");\r\n        _;\r\n    }\r\n    \r\n    event SmartContractReceivedEth(address sender, uint amount, string message);\r\n    receive() external payable{\r\n        emit SmartContractReceivedEth(msg.sender, msg.value, \"Smart contract received ETHEREUM\");\r\n    }\r\n    \r\n    function getBalance() external view returns(uint){\r\n        return address(this).balance;\r\n    }\r\n    \r\n    // function invest() external payable{\r\n    //     emit SmartContractReceivedEth(msg.sender, msg.value, \"Smart contract received ETHEREUM\");\r\n    // }\r\n    \r\n}",
  "sourcePath": "D:\\Users\\yesla\\Desktop\\solidityworkspace\\multisignwallet\\contracts\\Multisignwallet.sol",
  "compiler": {
    "name": "solc",
    "version": "0.8.7+commit.e28d00a7.Emscripten.clang"
  },
  "schemaVersion": "3.4.3",
  "updatedAt": "2021-09-09T01:02:53.015Z",
  "devdoc": {
    "kind": "dev",
    "methods": {},
    "version": 1
  },
  "userdoc": {
    "kind": "user",
    "methods": {},
    "version": 1
  }
}